:10000000B82200202501000021010000210100008C
:1000100000000000000000000000000000000000E0
:1000200000000000000000000000000021010000AE
:10003000000000000000000021010000210100007C
:10004000210100002101000021010000190C000025
:10005000210100002101000021010000F51800002D
:100060002101000021010000210100002101000008
:1000700021010000210100002101000021010000F8
:1000800021010000210100002101000021010000E8
:10009000210100000000000000000000210100001C
:1000A00021010000210100002101000021010000C8
:1000B0000000000010B5064C2378002B07D1054B3B
:1000C000002B02D0044800E000BF0123237010BDC4
:1000D0000000002000000000A41C0000084B10B528
:1000E000002B03D00749084800E000BF0748036819
:1000F000002B00D110BD064B002BFBD09847F9E731
:100100000000000004000020A41C0000A41C00004B
:100110000000000010B5014B984710BDA50300007A
:10012000FEE70000F8B52A4A2A4B9A4211D01A007D
:10013000294B9A420DD2294A03339B1A9B0801335B
:100140009B000022234822498C58845004329A4252
:10015000FAD1234A234B9A420AD2D34321495B184E
:1001600003218B4304339B18002102C29342FCD12C
:100170001D4AFF211D4B8B439360FD3990235B008B
:100180001B4AD1501B4AD3780325AB430224234397
:10019000D370D3780C27BB4308263343D370164B58
:1001A000987B30229043202210439873997BB94367
:1001B000314399739A7BAA4322439A730F4A536837
:1001C00080210B4353600E4B98470E4B9847FEE738
:1001D000A41C0000000000200000002004000020FB
:1001E00000000020B402002000ED00E0000000004C
:1001F00000700041005000410048004100400041B3
:100200003D1B0000311B0000044A116A80235B0281
:100210000B431362024A034B5A80704700040040AC
:100220001E400000000C004010B5044B984700220F
:1002300003490448044B984710BDC046090200001A
:1002400000400042880200200504000030B50E4B3B
:100250004422995C0125A94301242143C9B2995440
:100260003220195C353A91430C3A11431954452117
:100270005A5CAA432243D2B25A541A5C36390A4015
:1002800021310A431A5430BD00440041044A136A24
:1002900004210B431362034A034B5A807047C04644
:1002A0000004004014400000000C004010B5054B55
:1002B0009847002204490548054B9847054B984745
:1002C00010BDC0468D020000000800428C020020D4
:1002D000790600004D020000F0B5C64600B5C02406
:1002E000E40580225204A2601A4B8027FF059F621A
:1002F0001949996262615820195C04229046914321
:100300001954195C0126B14301252943C9B2195476
:100310001C38195C0B329143093A1143195480215E
:100320008904A1609F620D4F9F62616159215C5CED
:10033000424694435C545A5CB2432A43D2B25A5464
:100340001A5C4A390A4051310A431A5404BC904697
:10035000F0BDC04600440041000100C0000200C0E2
:10036000064BDA6920210A43DA615A6920310A43CF
:100370005A61034A034B5A807047C046000400404C
:1003800006400000000C004010B5034B9847034B9B
:100390009847034B984710BD6103000035090000E2
:1003A000D902000010B50C4B98470C4B98470C4BEA
:1003B00098470C4A936920210B4393610A4A0B4BDF
:1003C0005A800B4B984702000A490B480B4B984741
:1003D0000B4B984710BDC046490B00002902000096
:1003E000AD0200000004004004400000000C00408A
:1003F000150C000000140040980200205105000078
:100400008903000070B504000D0000280CD008001E
:10041000431E9841C0B239220449054B9847290030
:100420002000044B984770BD0020F4E7A81B000093
:1004300099090000110B0000EFF31083036072B6FE
:10044000BFF35F8F7047BFF35F8F036883F310883C
:1004500070470000F8B5CE46474680B58146036830
:100460009C46002B05D08E681C0000250127BF1A72
:100470000DE0124B984718E0FB18A06880464344F3
:10048000B3420CD223682500002B0BD01C006368FC
:100490009342F1D8A068804643449B1AF0E7A445F4
:1004A00007D02C002000064B98470CBC904699467C
:1004B000F8BD4846014B9847F7E7C046C50900001C
:1004C000F1090000F0B5C64600B582B007004469E6
:1004D0000369013398460361037EDB0711D4037E71
:1004E0009B070ED4002C10D0434662689B1AA2686A
:1004F00093420AD314239C46844463460193124ECC
:1005000014E03B7E022213433B7602B004BC9046CB
:10051000F0BD7D69E36820009847002DF5D02C00E0
:1005200043466A689B1AAA689342EED30198B04783
:10053000237C012BEDD143466360424621000198A4
:10054000024B9847E5E7C046F90900005504000052
:1005500070B505000C00002811D00800431E98411A
:10056000C0B23B220749084B984721002800074B9F
:10057000984700232B61064B2B60002070BD0020A4
:10058000EFE7C046C41B000099090000B90B00004A
:10059000C5040000F8B5CE46474680B504000F00FC
:1005A0009046002826D0002926D01000431E9841EE
:1005B000F1221249124B98470834124D2000A847E7
:1005C0000028FBD00026104B99460E4DB95D200047
:1005D000C8472000A8470028FBD001364645F5D380
:1005E0000A4D2000A8470028FBD030000CBC9046E4
:1005F0009946F8BD0020DBE70020D9E7DC1B0000AE
:1006000099090000150D0000050D00001F0D0000E8
:10061000F8B5CE46474680B504000F009046002846
:100620001DD000291DD01000431E98418622520083
:100630000D490E4B9847002608340D4D0D4B994639
:100640002000A8470028FBD02000C847B855013635
:100650004645F5D330000CBC90469946F8BD0020C5
:10066000E4E70020E2E7C046DC1B00009909000037
:10067000290D00000D0D000070B505000C000028CC
:1006800013D00800431E9841C0B234220849094BD8
:100690009847280008302100074B9847002803D1CD
:1006A000064B6B60064B2B6070BD0020EDE7C0462B
:1006B000DC1B000099090000D90C000011060000A5
:1006C00095050000F0B504000E4B5A78904217D003
:1006D000002300200B4F0F2626403D0008E001308C
:1006E00040B204280AD02033EA185278A24206D039
:1006F000D95D0029F3D19642F1D100E00538F0BD73
:100700000020FCE71C0000200020704770B50400AA
:100710000D000A4B98474201094B9B189A78002319
:10072000032A01D0180070BD4001054B18188369D9
:100730002900200098470300F4E7C046C5060000E2
:100740001C000020F0B585B005000F001600514BCD
:1007500098470400002F62D14F4B420199180020A6
:10076000C870D35C002B0ED062014B4B9B1801224A
:100770009A706401484B1C19E178E3693200280043
:10078000984705B0F0BD8B78032B0CD0424B62012B
:100790000C329A1864011C1960780021E3699847AB
:1007A0000223A370EDE73C4A0B000C254D57610175
:1007B0000C3152185878DB6901219847002817D06E
:1007C0006201354B9B1805229A70033ADA70002DAE
:1007D00009DB6401304B1C19607880231843012128
:1007E0002E4B9847CDE764012B4B1C196078F6E738
:1007F0006401294B1C190423A37063780022019221
:100800000292002D08DB8032134301A803720123FA
:100810004372234B9847B4E70F221340F5E7012FAB
:100820000AD0022F1DD0032F2CD042011A4B9B1847
:1008300006229A70DA709CE7174B42019918022041
:10084000C870D35C002B05D06201134B9B180522A6
:100850009A708EE702228A70002128000F4B984779
:1008600087E70D4B420199180420C870D35C002B18
:1008700005D06201084B9B1801229A7079E7022388
:100880008B707EE74201044B9B1800229A70053260
:10089000DA706EE7C50600001C000020DD140000C1
:1008A000B1160000F0B5C64600B504001D4B9847D0
:1008B000060045010C351C4B5D19290020001B4B1F
:1008C0009847C0B208280AD001212000184DA84737
:1008D000802020430121A84704BC9046F0BD0021A0
:1008E0002000134B98469847802727430021380063
:1008F000C04772010C4B9B1801229A705B6929005A
:10090000200098470028E7D17601074B9E19052360
:10091000B37001212000064CA04701213800A047F8
:10092000DAE7C046C50600001C00002041160000A2
:10093000DD14000010B5104B984700281BDB0F4C4E
:100940008022002120000E4B984723008034FF2195
:100950000C4A59705A619A61DA612033A342F8D186
:1009600009490020094CA04709490120A04709492D
:100970000220A047002010BD011400001C00002030
:10098000971B000009070000A5080000C51800001B
:100990000D07000045070000002800D100BE704789
:1009A0000368002B0AD08B420AD01B68002B03D0AF
:1009B0009942FAD1012000E0002070470020FCE7B6
:1009C0000120FAE770B504000D00064B984701239B
:1009D0005840C0B239220449044B984723682B6021
:1009E000256070BDA1090000F81B000099090000F6
:1009F00003680B60016070470368002B01D01A6820
:100A000002601800704700207047000070B50400B5
:100A10000D00394BC01842424241D0B294223749AE
:100A2000374B9847374B1A685201E023DB001A40D6
:100A3000354B596849011B68DB0E0B43FF210B4006
:100A40001A43637EDB09FCD123789B0704D500237E
:100A50002370637EDB09FCD101232370637EDB09F5
:100A6000FCD12285EA00521B9200284B9B189A78F1
:100A70006270DA78A2701A79E2701A7C2275DA8ACA
:100A8000A2841A8BE284997E2A22A154DB88A38057
:100A9000637EDB09FCD1EB005B1B9B001B4AD31878
:100AA000DB682361637EDB09FCD1EB005B1B9B00F1
:100AB000164AD3181B7A2372637EDB09FCD1EB0044
:100AC0005B1B9B00114AD3185B8AA383637EDB09FF
:100AD000FCD1EB005B1B9B000C4AD3189B8A238440
:100AE000637EDB09FCD1EB005D1BAD00074B5D199C
:100AF0006B782370002070BD00C0FFBD341C000067
:100B0000990900002460800020608000181C00000B
:100B100070B505000C00431E9841C0B2C5220649BD
:100B2000064B98472C602000054B98470100200099
:100B3000044B984770BDC046341C00009909000062
:100B4000070A00000D0A000010B5064B5A685A60EB
:100B5000054B9847054B9847054B9847FF20054B99
:100B6000984710BD00400041990B0000350D000072
:100B70007D0D0000790B0000C3070AD5054B8022CC
:100B800052009A60832252025A601A005378DB099D
:100B9000FCD17047000C0040064B1A7AD2B21A7290
:100BA0005A7AD2B25A729A7AD2B29A72DA7AD2B2A5
:100BB000DA7270470004004070B504000D00431E57
:100BC0009841C0B233221049104B9847E560012389
:100BD0002B80AB7ADB09FCD1E268937ADB09FCD18C
:100BE00080331380937ADB09FCD1E2689369802318
:100BF000DB009361937ADB09FCD10133E268D371A6
:100C0000034B1C60002070BD4C1C000099090000C3
:100C10009C0000200020704710B5074B1C68E3685B
:100C20001B7ADB0707D52368002B01D020009847EB
:100C3000E36801221A7210BD9C00002010B5040068
:100C40001F4BC3189B0ADBB2002B04D01D4A1E4960
:100C500000201E4B9847E369DB0718D40322E369A1
:100C60001A42FCD123689B070BD5236802229343C9
:100C700023600132E3691A42FCD10222E3691A427D
:100C8000FCD1052323600322E3691A42FCD101222F
:100C9000E3691A42FCD10E4B23600322E3691A4236
:100CA000FCD1C0239B0263600722E3691A42FCD196
:100CB000084BA3810023A3733022A354002010BD4E
:100CC00000F8FFBD3A020000641C00009909000012
:100CD00004001040ADD8FFFF70B505000C00431EA6
:100CE0009841C0B2B4220449044B98472C602000BC
:100CF000034B984770BDC046641C00009909000072
:100D00003D0C0000036889B2198570470368188D8F
:100D1000C0B270470368187E01231840704703680B
:100D2000187E8007C00F70470368187E4007C00F09
:100D3000704700000E4B1A6A196A0E480240890F6C
:100D400089070D4801430A431A629A6902210A433E
:100D50009A611A7F1D310A401A7719000822CB6860
:100D60001A42FCD0024A136A80210B431362704777
:100D7000000800400000FF0F02030000024A9369D0
:100D800002218B43936170470008004000207047A8
:100D900070B5837C0F221340C17C083A0A40012AB7
:100DA0000BD05A0119498C4662441021D1715B0164
:100DB000174A94466344197070BD4A060ED5C27C2A
:100DC00040218A43C2745A01124CA44662448025D1
:100DD0008224640015550624FF341155C27C082175
:100DE0008A43C2740C495A018C180025A572A57655
:100DF0001300064CA44663446F24DC71044B9C46EC
:100E000062441470807C8B6E9847D5E70051004196
:100E10000851004100500041A000002010B52022E0
:100E20008A40D2B2817C0F230B405B0105498C467E
:100E300063441A708268807C034B1B6F01219847C2
:100E400010BDC04608510041A000002010B5837CB1
:100E5000FF2B02D0C27C520600D410BDC27C4024BD
:100E6000A243C27482680248046F1800A047F4E7E6
:100E7000A000002030B583B0837C01AC252525700F
:100E800025356570FF2B1BD0C47C640618D50F2454
:100E90002340002916D05C010E4DAC4664448025E9
:100EA000257101AC645C59010A4DAC466144CC71BA
:100EB0005B0109498C4663441C701100074B98473D
:100EC00003B030BD5C01034DAC4664444025657100
:100ED000E7E7C04600510041085100414D0E0000B7
:100EE00070B582B0837C0F22134001AA04241470D1
:100EF000043454705D01002931D01A0008325201C7
:100F0000324C145D6406640F0A015219304DAA1860
:100F1000957AEDB2022C2AD0AC0741D5C57C947AE3
:100F20000226B443947201AA545C5A01294EB44675
:100F30006244D4715B01284A944663441C700723C1
:100F40002B40012B3FD1C37C5B063CD5C37CDB0926
:100F5000994238D000221900204B984733E01A00FC
:100F600008325201194C145D07221440CCE7EC07FB
:100F7000D2D5947A0125AC43947201AA545C5A01EB
:100F8000144DAC466244D4715B01134A94466344E9
:100F90001C704B1E9941C9B20422104B984712E0B5
:100FA0005A00521812010A4882180020907201AAB1
:100FB000515C5A01074884466244D1715B01064A7C
:100FC00094466344197002B070BDC04600500041A1
:100FD000A00000200051004108510041750E0000A2
:100FE000F0B5C64600B50C4D2C0074342935FF35DC
:100FF0000A4B9846FF27002603212000C047A7740C
:10100000E6741434AC42F7D1602200210248044B4C
:10101000984704BC9046F0BDA00000204D0E000093
:10102000971B0000F0B5C64600B504000E00837C97
:101030000F251D40002900D1AAE06A015A4B9B18D8
:1010400058698004800C238A584A934200D19AE060
:10105000013B9AB2E37C07271F40002E05D06B01AD
:1010600053498C4663440221D971A368C118A16019
:10107000636899424AD25B1A9BB2E27C920635D5EC
:10108000228A101C92B29A4200D9181C83B2984648
:1010900023689C4661444246E068464B9847E168B5
:1010A0006A01414B9B1819616A013F4B9B185A69B1
:1010B00041468904890C920B92030A435A615A698A
:1010C0003D490A405A61002E07D1012F59D04A22CA
:1010D0006B013A498C4663441A706D01344B9C464F
:1010E000654480236B7104BC9046F0BD1A1C8020BF
:1010F0008001834201D9324B1A8893B29846236803
:1011000059186A01284B9B181961CDE7E37CDB066F
:101110000FD5E37C10229343E3746A01224B9B18A2
:101120005A69920B92035A615A6923490A405A61DB
:10113000C9E7012F0ED06D01224B9C4665444A231E
:101140002B70218A024091420BD0002120001E4BBF
:101150009847C8E76D011B4B9C4665444B232B7099
:10116000EFE7E37C40229343E374A07C0E4BDB6EFD
:10117000A16898470028B6D1E37C40221343E3746A
:10118000E3E74E22A4E7E77C07231F40074A66E710
:10119000038A064A0020934200D059E7E37C0727E0
:1011A0001F400020014A60E7A0000020FF0300006C
:1011B00000510041851B0000FF3F00F00951004134
:1011C000801C0000085100414D0E0000F8B5DE46BD
:1011D00057464E464546E0B504008846837C0F25B9
:1011E0001D40002957D06A017D4B9B185A68120197
:1011F000920C92465F68BF04BF0CBB46068A794BCF
:101200009E4200D1CDE0013EB6B25F463740E37C5E
:1012100007221A4091464346002B05D06B01724AC3
:10122000944663440122DA71E37C9B060FD5636820
:10123000002B39D0A0681B1A9BB2226894466044E8
:10124000E1681A00BB4200D93A00684B98476368CE
:10125000002B29D04246002A42D0228ABA423FD9E6
:10126000E37C10229343E374A3685B44A3604B4682
:10127000012B00D187E06B015D4A9446634425222F
:101280001A70002D02D1564BE2681A60002120002E
:10129000584B984759E0068A524B9E4200D18EE047
:1012A00000239B469A46AEE7E37CDB0600D47FE052
:1012B000E37C1022934320221343E374484A6B01DA
:1012C000E1689950218AD3185A68890409094A4863
:1012D00002400A435A605A68920B92035A6022E015
:1012E000A2685244A2609342C1D99B1A9BB2E17C8E
:1012F000890630D5228A111C92B29A4200D9191C53
:101300008BB2E0686A01364950506A013449891845
:101310004A689B041B093848024013434B604B68E2
:101320009B0B9B034B604346002B08D125224B4669
:10133000012B2FD06B0131498C4663441A706D012B
:10134000294B9C46654440232B713CBC90469946F2
:10135000A246AB46F8BD218A8B420AD98021890179
:101360008B420DD8B34321688A1869011C480A5082
:10137000CBE78B42F7D2E17C20200143E174F2E716
:1013800080239B01EFE76B01194A944663442D22A9
:101390001A7076E76A01124B9B1800229A762D325A
:1013A000C8E7BF05BF0DC37C07221A40914635E749
:1013B0004346002B0CD1A3685344A36057E7C37C7A
:1013C00007221A409146002700239B469A462BE7A6
:1013D000238ABB4200D943E7A3685344A36046E78E
:1013E000A0000020FF03000000510041851B000009
:1013F000085100414D0E0000FF3F00F0095100412F
:1014000010B5314B9B78DB071FD42F4903228B7813
:101410001342FCD12C4B1B789B070ED52A4A13781C
:1014200002218B431370110003228B781342FCD1ED
:10143000254902228B781342FCD10122224B1A70DB
:10144000190002328B781342FCD11F4901228B789C
:101450001342FCD11D4B1E4A1A665A669A66DA661A
:101460001A671C4B98471C4B1B685A0B1F210A40DC
:10147000980C01409B015B0F1F2A1FD01F291FD012
:10148000072B1FD092010A431B0313430E4A1385F7
:10149000D37803210B43D370D3780C210B43D37043
:1014A00004231370110003228B781342FCD1064BE6
:1014B000064A5A6201221A81002010BD1A3ADDE75D
:1014C0000239DDE7023BDDE700500041A0000020CB
:1014D0008D0D0000E10F000024608000F0B50F23A7
:1014E000034040B2C40F002B09D01A00002804DBCF
:1014F000022B05D91220404219E09A1CF8E700227D
:10150000012915D0002936D093009B189B00474A2B
:10151000D218863212780F2313405B01444A944656
:10152000634498791023A3401840431E9841F0BDAE
:101530001025A540EDB23D49900083189B00CB18C3
:1015400086331E780F2333405E01394FBC46664414
:1015500075712025A540ECB25B01364DAC46634465
:101560001C70821892008A188032D37908210B43AC
:10157000D3710020DBE793009B1899002B4B5B187D
:1015800086331B780F210B405D012B498C46654447
:10159000832149006E5CF639A14000200E42C6D07E
:1015A000C9B20530FF3029542021A140C8B25B01E7
:1015B000224EB446634418700823FF33EB5C0B42A1
:1015C00009D00823FF33E854073BFF3BA340DBB2BD
:1015D000822149006B5493009B189900134B5B18B0
:1015E0008033D97907230B40012B0BD093009A1835
:1015F00092000E4B9B188033DA7908218A43DA7106
:10160000002094E70633FF33E95CD63B0020194203
:1016100000D08CE793009A189200044B9B188033FB
:10162000DA7908218A43DA7181E7C046A0000020F8
:101630000051004109510041005000410851004152
:1016400070B50D000F2318404401164B1B19196883
:101650005B689B049E0C02281AD8002D1BD0124BED
:101660009C46644480235B00E35C112B16D1082365
:10167000FF33E35C0020DB0600D470BD08222800A5
:101680000A4B984710220823FF33E2543000F4E756
:1016900012204042F1E712204042EEE71320404280
:1016A000EBE7C046A000002000500041851B000071
:1016B000F0B5DE4657464E464546E0B585B0804615
:1016C000067A0F23334076B2002B00D1D3E0180006
:1016D000002E39DB0400734A6032411C8D006D1806
:1016E000AD0055198100091889005218918C6E4A75
:1016F00091422BD04F1EBFB2424652681740022B78
:1017000000D9A4E043461B686848834220D9981852
:101710000190674884460198604519D89B0717D106
:10172000002E32DB914200D9AFE0002F30D0A30071
:101730001B199A005B4B9B1880331B68002B00D150
:101740008BE0002399460FE0981CC3E70F00D3E716
:10175000A3001B199A00534B9B1880331B68002B66
:1017600000D177E001239946A3001B199A004D4B45
:101770009B188033DB7902201B070CD505B03CBCDD
:1017800090469946A246AB46F0BD00239946EBE74A
:1017900000239946E8E703A8464B9847A3001B1986
:1017A0009A00404B9B188033DB795B0644D4A3003E
:1017B0001B199B003B4A93469B4480235B449A46FB
:1017C000DB79402213435246D37103A83A4B984722
:1017D0005B46424612685A67424652689A6700233F
:1017E0005A46D367F20FD2015346D9797F230B4073
:1017F000494649011343202293430B435246D37178
:1018000043465B7A0022002B02D07A427A41D2B260
:10181000A3001C19A400234B1B1980331201DF798C
:1018200010218F431743DF71002E0ADB00212800AF
:10183000224B98470020A1E703A81F4B984701209F
:101840009CE7002128001E4B9847002096E71220B5
:10185000404293E71320404290E7122040428DE738
:10186000132040428AE743465A689705BF0D0D4D45
:101870007435002446E70B4A6032918C0A4A914243
:10188000F1D0084D7435002434E7A3001B199A00E9
:10189000044B9B1880331B68002BE1D00123994631
:1018A00062E7C046A0000020FF030000FFFFFF1F0B
:1018B000FF7F00203904000047040000CD11000024
:1018C000251000000B1E08D0002808D0012809D0E0
:1018D000022806D1054A136703E0054BF4E7034AE3
:1018E00093667047014AD366FBE7C046A00000201C
:1018F0008D0D0000F8B5824B1E8CB6B2002E03D0C1
:10190000804C74340025B9E0998B1B8B0B405A072F
:1019100017D49A051CD41A063ED470221A4244D118
:101920001A075ED4DB07EBD5754B774A9A839A8208
:10193000923AFF3A1A83734B5B6E0021042098475A
:1019400005E004226E4B9A836E4B1B6E9847F8BDE0
:101950006B4B6D4A9A839A82923AFF3A1A83694B8B
:101960001B891B071B0F032B0CD0664B1B8D1B0702
:101970001B0F00216F3A032B05D0624B5B6E0320D7
:101980009847E4E7002252015E4B9B1819894904ED
:10199000490D00221A81F0E78022594B9A83594B56
:1019A0005B6E002105209847D1E7554B9A839A82B8
:1019B000554A1A83554B9B8C9B060CD45349323A9B
:1019C000FF3ACB681340D02BFBD14E4B5B6E00210E
:1019D00002209847BBE74D491022CB681A42FCD041
:1019E000F3E7474B0021802252009954F83A9A833A
:1019F00068329A82444A1A83454B9847414B5B6E42
:101A0000002101209847A2E7CB0607D44B0608D453
:101A10008B062ED500213F4B98472AE03E4B984736
:101A200027E001213B4B984723E04B060ED40B07E0
:101A300010D48B0712D407231A40012A19D14B075F
:101A400010D4CB0615D5344B984712E00121314B09
:101A500098470EE00121314B98470AE00121304BB5
:101A6000984706E000212D4B984702E00021294BC2
:101A7000984701351434092D00D168E72000A17C76
:101A8000FF29F6D00F230B40012199400E42F0D0E0
:101A90005901244FBC466144C9795B01224FBC46C1
:101AA00063441B781940E4D0AB005A199200154BDF
:101AB0009C4662447032D27D47231340012BA3D051
:101AC00053B2002BB1DB8B06D0D44B070CD4CB0721
:101AD0000ED407231A40012ACBD10B070CD4CB0616
:101AE000C7D50D4B9847C4E700210C4B9847C0E77A
:101AF00001210E4B9847BCE70121084B9847B8E7F6
:101B000000500041A0000020010200000008004039
:101B1000E10F00001D0E0000910D0000E10E00001D
:101B2000251000000051004109510041CD11000075
:101B300010B5014B9847FEE71501000070B500266F
:101B40000C4D0D4C641BA410A64209D1002600F0D8
:101B500099F80A4D0A4C641BA410A64205D170BD29
:101B6000B300EB5898470136EEE7B300EB589847BF
:101B70000136F2E7901C0000901C0000901C000051
:101B8000941C0000002310B59A4200D110BDCC5C1B
:101B9000C4540133F8E703008218934200D1704720
:101BA00019700133F9E700002E2E2F68616C2F7336
:101BB00072632F68616C5F6164635F73796E632E1B
:101BC000630000002E2E2F68616C2F7372632F68E4
:101BD000616C5F74696D65722E6300002E2E2F6834
:101BE000616C2F7372632F68616C5F7573617274BF
:101BF0005F73796E632E63002E2E2F68616C2F75D4
:101C000074696C732F7372632F7574696C735F6C76
:101C10006973742E630000000002000000000000E1
:101C200000000000000000000000000000000000B4
:101C3000000000002E2E2F68706C2F6164632F68E7
:101C4000706C5F6164632E63000000002E2E2F68AD
:101C5000706C2F7274632F68706C5F7274632E6384
:101C6000000000002E2E2F68706C2F736572636F5A
:101C70006D2F68706C5F736572636F6D2E6300000B
:101C800000200000F8B5C046F8BC08BC9E4670476E
:101C9000DD000000F8B5C046F8BC08BC9E467047A1
:041CA000B50000008B
:00000001FF
